8=FIX.4.3|9=67|35=A|34=1|49=server|52=20190626-13:01:51.145|56=client|98=0|108=30|10=023|8=FIX.4.3|9=55|35=0|34=2|49=server|52=20190626-13:02:21.754|56=client|10=239|8=FIX.4.3|9=64|35=1|34=3|49=server|52=20190626-13:02:36.752|56=client|112=TEST|10=007|8=FIX.4.3|9=67|35=A|34=4|49=server|52=20190626-13:03:44.583|56=client|98=0|108=30|10=036|8=FIX.4.3|9=64|35=2|34=5|49=server|52=20190626-13:03:44.585|56=client|7=2|16=0|10=120|8=FIX.4.3|9=55|35=0|34=6|49=server|52=20190626-13:04:14.752|56=client|10=245|8=FIX.4.3|9=55|35=0|34=7|49=server|52=20190626-13:04:44.753|56=client|10=250|8=FIX.4.3|9=55|35=0|34=8|49=server|52=20190626-13:05:14.752|56=client|10=248|8=FIX.4.3|9=55|35=0|34=9|49=server|52=20190626-13:05:44.751|56=client|10=251|8=FIX.4.3|9=56|35=0|34=10|49=server|52=20190626-13:06:14.751|56=client|10=034|8=FIX.4.3|9=56|35=0|34=11|49=server|52=20190626-13:06:44.752|56=client|10=039|8=FIX.4.3|9=56|35=0|34=12|49=server|52=20190626-13:07:14.751|56=client|10=037|8=FIX.4.3|9=56|35=0|34=13|49=server|52=20190626-13:07:44.751|56=client|10=041|8=FIX.4.3|9=68|35=A|34=14|49=server|52=20190626-13:09:41.245|56=client|98=0|108=30|10=084|8=FIX.4.3|9=56|35=0|34=15|49=server|52=20190626-13:10:11.789|56=client|10=042|8=FIX.4.3|9=56|35=0|34=16|49=server|52=20190626-13:10:41.811|56=client|10=032|8=FIX.4.3|9=56|35=0|34=17|49=server|52=20190626-13:11:12.052|56=client|10=029|8=FIX.4.3|9=56|35=0|34=18|49=server|52=20190626-13:11:42.051|56=client|10=032|8=FIX.4.3|9=56|35=0|34=19|49=server|52=20190626-13:12:12.049|56=client|10=038|8=FIX.4.3|9=56|35=0|34=20|49=server|52=20190626-13:12:42.053|56=client|10=028|8=FIX.4.3|9=56|35=0|34=21|49=server|52=20190626-13:13:12.053|56=client|10=027|8=FIX.4.3|9=56|35=0|34=22|49=server|52=20190626-13:13:42.051|56=client|10=029|8=FIX.4.3|9=56|35=0|34=23|49=server|52=20190626-13:14:12.053|56=client|10=030|8=FIX.4.3|9=56|35=0|34=24|49=server|52=20190626-13:14:42.050|56=client|10=031|8=FIX.4.3|9=56|35=0|34=25|49=server|52=20190626-13:15:12.055|56=client|10=035|8=FIX.4.3|9=56|35=0|34=26|49=server|52=20190626-13:15:42.055|56=client|10=039|8=FIX.4.3|9=56|35=0|34=27|49=server|52=20190626-13:16:12.053|56=client|10=036|8=FIX.4.3|9=56|35=0|34=28|49=server|52=20190626-13:16:42.052|56=client|10=039|8=FIX.4.3|9=56|35=0|34=29|49=server|52=20190626-13:17:12.051|56=client|10=037|8=FIX.4.3|9=56|35=0|34=30|49=server|52=20190626-13:17:42.055|56=client|10=036|8=FIX.4.3|9=56|35=0|34=31|49=server|52=20190626-13:18:12.052|56=client|10=032|8=FIX.4.3|9=56|35=0|34=32|49=server|52=20190626-13:18:42.051|56=client|10=035|8=FIX.4.3|9=56|35=0|34=33|49=server|52=20190626-13:19:12.051|56=client|10=034|8=FIX.4.3|9=56|35=0|34=34|49=server|52=20190626-13:19:42.050|56=client|10=037|8=FIX.4.3|9=56|35=0|34=35|49=server|52=20190626-13:20:12.053|56=client|10=030|8=FIX.4.3|9=56|35=0|34=36|49=server|52=20190626-13:20:42.054|56=client|10=035|8=FIX.4.3|9=56|35=0|34=37|49=server|52=20190626-13:21:12.053|56=client|10=033|8=FIX.4.3|9=56|35=0|34=38|49=server|52=20190626-13:21:42.053|56=client|10=037|8=FIX.4.3|9=56|35=0|34=39|49=server|52=20190626-13:22:12.051|56=client|10=034|8=FIX.4.3|9=56|35=0|34=40|49=server|52=20190626-13:22:42.054|56=client|10=032|8=FIX.4.3|9=56|35=0|34=41|49=server|52=20190626-13:23:12.053|56=client|10=030|8=FIX.4.3|9=56|35=0|34=42|49=server|52=20190626-13:23:42.051|56=client|10=032|8=FIX.4.3|9=56|35=0|34=43|49=server|52=20190626-13:24:12.050|56=client|10=030|8=FIX.4.3|9=56|35=0|34=44|49=server|52=20190626-13:24:42.050|56=client|10=034|8=FIX.4.3|9=56|35=0|34=45|49=server|52=20190626-13:25:12.055|56=client|10=038|8=FIX.4.3|9=56|35=0|34=46|49=server|52=20190626-13:25:42.055|56=client|10=042|8=FIX.4.3|9=56|35=0|34=47|49=server|52=20190626-13:26:12.052|56=client|10=038|8=FIX.4.3|9=56|35=0|34=48|49=server|52=20190626-13:26:42.051|56=client|10=041|8=FIX.4.3|9=56|35=0|34=49|49=server|52=20190626-13:27:12.052|56=client|10=041|8=FIX.4.3|9=56|35=0|34=50|49=server|52=20190626-13:27:42.052|56=client|10=036|8=FIX.4.3|9=56|35=0|34=51|49=server|52=20190626-13:28:12.050|56=client|10=033|8=FIX.4.3|9=56|35=0|34=52|49=server|52=20190626-13:28:42.052|56=client|10=039|8=FIX.4.3|9=68|35=A|34=53|49=server|52=20190626-13:29:11.036|56=client|98=0|108=30|10=084|8=FIX.4.3|9=68|35=A|34=54|49=server|52=20190626-13:29:41.036|56=client|98=0|108=30|10=088|8=FIX.4.3|9=56|35=0|34=55|49=server|52=20190626-13:30:11.305|56=client|10=032|8=FIX.4.3|9=68|35=A|34=56|49=server|52=20190626-13:30:24.157|56=client|98=0|108=30|10=087|8=FIX.4.3|9=56|35=0|34=57|49=server|52=20190626-13:30:54.306|56=client|10=042|8=FIX.4.3|9=56|35=0|34=58|49=server|52=20190626-13:31:24.305|56=client|10=040|8=FIX.4.3|9=56|35=0|34=59|49=server|52=20190626-13:31:54.307|56=client|10=046|8=FIX.4.3|9=56|35=0|34=60|49=server|52=20190626-13:32:24.306|56=client|10=035|8=FIX.4.3|9=56|35=0|34=61|49=server|52=20190626-13:32:54.306|56=client|10=039|8=FIX.4.3|9=68|35=A|34=62|49=server|52=20190626-13:34:48.201|56=client|98=0|108=30|10=084|8=FIX.4.3|9=68|35=A|34=63|49=server|52=20190626-14:08:46.932|56=client|98=0|108=30|10=096|8=FIX.4.3|9=56|35=0|34=64|49=server|52=20190626-14:09:19.487|56=client|10=058|8=FIX.4.3|9=56|35=0|34=65|49=server|52=20190626-14:09:50.193|56=client|10=048|8=FIX.4.3|9=56|35=0|34=66|49=server|52=20190626-14:10:20.193|56=client|10=038|8=FIX.4.3|9=56|35=0|34=67|49=server|52=20190626-14:10:50.238|56=client|10=042|8=FIX.4.3|9=56|35=0|34=68|49=server|52=20190626-14:11:21.195|56=client|10=044|8=FIX.4.3|9=68|35=A|34=69|49=server|52=20190626-14:11:59.813|56=client|98=0|108=30|10=098|8=FIX.4.3|9=56|35=0|34=70|49=server|52=20190626-14:12:30.552|56=client|10=035|8=FIX.4.3|9=65|35=1|34=71|49=server|52=20190626-14:12:49.541|56=client|112=TEST|10=063|8=FIX.4.3|9=68|35=A|34=72|49=server|52=20190626-14:16:39.631|56=client|98=0|108=30|10=093|8=FIX.4.3|9=56|35=0|34=73|49=server|52=20190626-14:17:17.713|56=client|10=047|8=FIX.4.3|9=65|35=1|34=74|49=server|52=20190626-14:17:40.278|56=client|112=TEST|10=069|