8=FIX.4.2|9=67|35=A|34=1|49=server|52=20190626-13:01:51.068|56=client|98=0|108=30|10=026|8=FIX.4.2|9=55|35=0|34=2|49=server|52=20190626-13:02:21.758|56=client|10=242|8=FIX.4.2|9=64|35=1|34=3|49=server|52=20190626-13:02:36.755|56=client|112=TEST|10=009|8=FIX.4.2|9=67|35=A|34=4|49=server|52=20190626-13:03:43.413|56=client|98=0|108=30|10=026|8=FIX.4.2|9=55|35=0|34=5|49=server|52=20190626-13:04:13.566|56=client|10=245|8=FIX.4.2|9=55|35=0|34=6|49=server|52=20190626-13:04:43.569|56=client|10=252|8=FIX.4.2|9=55|35=0|34=7|49=server|52=20190626-13:05:13.568|56=client|10=250|8=FIX.4.2|9=55|35=0|34=8|49=server|52=20190626-13:05:43.565|56=client|10=251|8=FIX.4.2|9=55|35=0|34=9|49=server|52=20190626-13:06:13.569|56=client|10=254|8=FIX.4.2|9=56|35=0|34=10|49=server|52=20190626-13:06:43.567|56=client|10=040|8=FIX.4.2|9=56|35=0|34=11|49=server|52=20190626-13:07:13.569|56=client|10=041|8=FIX.4.2|9=56|35=0|34=12|49=server|52=20190626-13:07:43.567|56=client|10=043|8=FIX.4.2|9=68|35=A|34=13|49=server|52=20190626-13:09:41.321|56=client|98=0|108=30|10=077|8=FIX.4.2|9=56|35=0|34=14|49=server|52=20190626-13:10:11.793|56=client|10=035|8=FIX.4.2|9=56|35=0|34=15|49=server|52=20190626-13:10:41.822|56=client|10=032|8=FIX.4.2|9=56|35=0|34=16|49=server|52=20190626-13:11:12.056|56=client|10=031|8=FIX.4.2|9=56|35=0|34=17|49=server|52=20190626-13:11:42.054|56=client|10=033|8=FIX.4.2|9=56|35=0|34=18|49=server|52=20190626-13:12:12.051|56=client|10=029|8=FIX.4.2|9=56|35=0|34=19|49=server|52=20190626-13:12:42.054|56=client|10=036|8=FIX.4.2|9=56|35=0|34=20|49=server|52=20190626-13:13:12.057|56=client|10=029|8=FIX.4.2|9=56|35=0|34=21|49=server|52=20190626-13:13:42.053|56=client|10=029|8=FIX.4.2|9=56|35=0|34=22|49=server|52=20190626-13:14:12.057|56=client|10=032|8=FIX.4.2|9=56|35=0|34=23|49=server|52=20190626-13:14:42.051|56=client|10=030|8=FIX.4.2|9=56|35=0|34=24|49=server|52=20190626-13:15:12.059|56=client|10=037|8=FIX.4.2|9=56|35=0|34=25|49=server|52=20190626-13:15:42.058|56=client|10=040|8=FIX.4.2|9=56|35=0|34=26|49=server|52=20190626-13:16:12.057|56=client|10=038|8=FIX.4.2|9=56|35=0|34=27|49=server|52=20190626-13:16:42.056|56=client|10=041|8=FIX.4.2|9=56|35=0|34=28|49=server|52=20190626-13:17:12.053|56=client|10=037|8=FIX.4.2|9=56|35=0|34=29|49=server|52=20190626-13:17:42.057|56=client|10=045|8=FIX.4.2|9=56|35=0|34=30|49=server|52=20190626-13:18:12.055|56=client|10=033|8=FIX.4.2|9=56|35=0|34=31|49=server|52=20190626-13:18:42.053|56=client|10=035|8=FIX.4.2|9=56|35=0|34=32|49=server|52=20190626-13:19:12.053|56=client|10=034|8=FIX.4.2|9=56|35=0|34=33|49=server|52=20190626-13:19:42.055|56=client|10=040|8=FIX.4.2|9=56|35=0|34=34|49=server|52=20190626-13:20:12.055|56=client|10=030|8=FIX.4.2|9=56|35=0|34=35|49=server|52=20190626-13:20:42.056|56=client|10=035|8=FIX.4.2|9=56|35=0|34=36|49=server|52=20190626-13:21:12.057|56=client|10=035|8=FIX.4.2|9=56|35=0|34=37|49=server|52=20190626-13:21:42.056|56=client|10=038|8=FIX.4.2|9=56|35=0|34=38|49=server|52=20190626-13:22:12.053|56=client|10=034|8=FIX.4.2|9=56|35=0|34=39|49=server|52=20190626-13:22:42.056|56=client|10=041|8=FIX.4.2|9=56|35=0|34=40|49=server|52=20190626-13:23:12.056|56=client|10=031|8=FIX.4.2|9=56|35=0|34=41|49=server|52=20190626-13:23:42.052|56=client|10=031|8=FIX.4.2|9=56|35=0|34=42|49=server|52=20190626-13:24:12.050|56=client|10=028|8=FIX.4.2|9=56|35=0|34=43|49=server|52=20190626-13:24:42.051|56=client|10=033|8=FIX.4.2|9=56|35=0|34=44|49=server|52=20190626-13:25:12.059|56=client|10=040|8=FIX.4.2|9=56|35=0|34=45|49=server|52=20190626-13:25:42.056|56=client|10=041|8=FIX.4.2|9=56|35=0|34=46|49=server|52=20190626-13:26:12.054|56=client|10=038|8=FIX.4.2|9=56|35=0|34=47|49=server|52=20190626-13:26:42.052|56=client|10=040|8=FIX.4.2|9=56|35=0|34=48|49=server|52=20190626-13:27:12.053|56=client|10=040|8=FIX.4.2|9=56|35=0|34=49|49=server|52=20190626-13:27:42.053|56=client|10=044|8=FIX.4.2|9=56|35=0|34=50|49=server|52=20190626-13:28:12.051|56=client|10=032|8=FIX.4.2|9=56|35=0|34=51|49=server|52=20190626-13:28:42.053|56=client|10=038|8=FIX.4.2|9=68|35=A|34=52|49=server|52=20190626-13:29:11.096|56=client|98=0|108=30|10=088|8=FIX.4.2|9=68|35=A|34=53|49=server|52=20190626-13:29:40.951|56=client|98=0|108=30|10=091|8=FIX.4.2|9=56|35=0|34=54|49=server|52=20190626-13:30:11.310|56=client|10=026|8=FIX.4.2|9=68|35=A|34=55|49=server|52=20190626-13:30:24.185|56=client|98=0|108=30|10=086|8=FIX.4.2|9=56|35=0|34=56|49=server|52=20190626-13:30:54.313|56=client|10=038|8=FIX.4.2|9=56|35=0|34=57|49=server|52=20190626-13:31:24.306|56=client|10=039|8=FIX.4.2|9=56|35=0|34=58|49=server|52=20190626-13:31:54.310|56=client|10=038|8=FIX.4.2|9=56|35=0|34=59|49=server|52=20190626-13:32:24.316|56=client|10=043|8=FIX.4.2|9=56|35=0|34=60|49=server|52=20190626-13:32:54.307|56=client|10=038|8=FIX.4.2|9=68|35=A|34=61|49=server|52=20190626-13:34:48.131|56=client|98=0|108=30|10=084|8=FIX.4.2|9=56|35=0|34=62|49=server|52=20190626-13:35:37.426|56=client|10=046|8=FIX.4.2|9=65|35=1|34=63|49=server|52=20190626-13:35:56.742|56=client|112=TEST|10=068|8=FIX.4.2|9=68|35=A|34=64|49=server|52=20190626-14:08:47.003|56=client|98=0|108=30|10=086|8=FIX.4.2|9=68|35=A|34=65|49=server|52=20190626-14:09:19.514|56=client|98=0|108=30|10=094|8=FIX.4.2|9=66|35=2|34=66|49=server|52=20190626-14:09:19.517|56=client|7=63|16=0|10=235|8=FIX.4.2|9=56|35=0|34=67|49=server|52=20190626-14:09:50.195|56=client|10=051|8=FIX.4.2|9=56|35=0|34=68|49=server|52=20190626-14:10:20.194|56=client|10=040|8=FIX.4.2|9=56|35=0|34=69|49=server|52=20190626-14:10:50.260|56=client|10=038|8=FIX.4.2|9=56|35=0|34=70|49=server|52=20190626-14:11:21.196|56=client|10=037|8=FIX.4.2|9=68|35=A|34=71|49=server|52=20190626-14:12:03.543|56=client|98=0|108=30|10=080|8=FIX.4.2|9=56|35=0|34=72|49=server|52=20190626-14:12:33.549|56=client|10=045|8=FIX.4.2|9=65|35=1|34=73|49=server|52=20190626-14:12:48.543|56=client|112=TEST|10=065|8=FIX.4.2|9=68|35=A|34=74|49=server|52=20190626-14:16:39.700|56=client|98=0|108=30|10=091|8=FIX.4.2|9=66|35=2|34=75|49=server|52=20190626-14:16:39.703|56=client|7=71|16=0|10=231|