8=FIX.4.2|9=67|35=A|34=1|49=client|52=20190626-13:01:51.003|56=server|98=0|108=30|10=015|8=FIX.4.2|9=67|35=A|34=2|49=client|52=20190626-13:03:43.384|56=server|98=0|108=30|10=031|8=FIX.4.2|9=64|35=2|34=3|49=client|52=20190626-13:03:43.424|56=server|7=2|16=0|10=108|8=FIX.4.2|9=55|35=0|34=4|49=client|52=20190626-13:04:13.564|56=server|10=242|8=FIX.4.2|9=55|35=0|34=5|49=client|52=20190626-13:04:43.564|56=server|10=246|8=FIX.4.2|9=55|35=0|34=6|49=client|52=20190626-13:05:13.566|56=server|10=247|8=FIX.4.2|9=55|35=0|34=7|49=client|52=20190626-13:05:43.565|56=server|10=250|8=FIX.4.2|9=55|35=0|34=8|49=client|52=20190626-13:06:13.565|56=server|10=249|8=FIX.4.2|9=55|35=0|34=9|49=client|52=20190626-13:06:43.565|56=server|10=253|8=FIX.4.2|9=56|35=0|34=10|49=client|52=20190626-13:07:13.564|56=server|10=035|8=FIX.4.2|9=56|35=0|34=11|49=client|52=20190626-13:07:43.565|56=server|10=040|8=FIX.4.2|9=68|35=A|34=12|49=client|52=20190626-13:09:41.196|56=server|98=0|108=30|10=086|8=FIX.4.2|9=56|35=0|34=13|49=client|52=20190626-13:10:11.800|56=server|10=023|8=FIX.4.2|9=56|35=0|34=14|49=client|52=20190626-13:10:41.824|56=server|10=033|8=FIX.4.2|9=56|35=0|34=15|49=client|52=20190626-13:11:12.050|56=server|10=024|8=FIX.4.2|9=56|35=0|34=16|49=client|52=20190626-13:11:42.049|56=server|10=036|8=FIX.4.2|9=56|35=0|34=17|49=client|52=20190626-13:12:12.048|56=server|10=034|8=FIX.4.2|9=56|35=0|34=18|49=client|52=20190626-13:12:42.054|56=server|10=035|8=FIX.4.2|9=56|35=0|34=19|49=client|52=20190626-13:13:12.051|56=server|10=031|8=FIX.4.2|9=56|35=0|34=20|49=client|52=20190626-13:13:42.050|56=server|10=025|8=FIX.4.2|9=56|35=0|34=21|49=client|52=20190626-13:14:12.052|56=server|10=026|8=FIX.4.2|9=56|35=0|34=22|49=client|52=20190626-13:14:42.049|56=server|10=036|8=FIX.4.2|9=56|35=0|34=23|49=client|52=20190626-13:15:12.053|56=server|10=030|8=FIX.4.2|9=56|35=0|34=24|49=client|52=20190626-13:15:42.053|56=server|10=034|8=FIX.4.2|9=56|35=0|34=25|49=client|52=20190626-13:16:12.053|56=server|10=033|8=FIX.4.2|9=56|35=0|34=26|49=client|52=20190626-13:16:42.050|56=server|10=034|8=FIX.4.2|9=56|35=0|34=27|49=client|52=20190626-13:17:12.050|56=server|10=033|8=FIX.4.2|9=56|35=0|34=28|49=client|52=20190626-13:17:42.053|56=server|10=040|8=FIX.4.2|9=56|35=0|34=29|49=client|52=20190626-13:18:12.050|56=server|10=036|8=FIX.4.2|9=56|35=0|34=30|49=client|52=20190626-13:18:42.050|56=server|10=031|8=FIX.4.2|9=56|35=0|34=31|49=client|52=20190626-13:19:12.051|56=server|10=031|8=FIX.4.2|9=56|35=0|34=32|49=client|52=20190626-13:19:42.050|56=server|10=034|8=FIX.4.2|9=56|35=0|34=33|49=client|52=20190626-13:20:12.050|56=server|10=024|8=FIX.4.2|9=56|35=0|34=34|49=client|52=20190626-13:20:42.052|56=server|10=030|8=FIX.4.2|9=56|35=0|34=35|49=client|52=20190626-13:21:12.053|56=server|10=030|8=FIX.4.2|9=56|35=0|34=36|49=client|52=20190626-13:21:42.052|56=server|10=033|8=FIX.4.2|9=56|35=0|34=37|49=client|52=20190626-13:22:12.051|56=server|10=031|8=FIX.4.2|9=56|35=0|34=38|49=client|52=20190626-13:22:42.052|56=server|10=036|8=FIX.4.2|9=56|35=0|34=39|49=client|52=20190626-13:23:12.051|56=server|10=034|8=FIX.4.2|9=56|35=0|34=40|49=client|52=20190626-13:23:42.050|56=server|10=028|8=FIX.4.2|9=56|35=0|34=41|49=client|52=20190626-13:24:12.048|56=server|10=034|8=FIX.4.2|9=56|35=0|34=42|49=client|52=20190626-13:24:42.050|56=server|10=031|8=FIX.4.2|9=56|35=0|34=43|49=client|52=20190626-13:25:12.052|56=server|10=032|8=FIX.4.2|9=56|35=0|34=44|49=client|52=20190626-13:25:42.052|56=server|10=036|8=FIX.4.2|9=56|35=0|34=45|49=client|52=20190626-13:26:12.050|56=server|10=033|8=FIX.4.2|9=56|35=0|34=46|49=client|52=20190626-13:26:42.050|56=server|10=037|8=FIX.4.2|9=56|35=0|34=47|49=client|52=20190626-13:27:12.051|56=server|10=037|8=FIX.4.2|9=56|35=0|34=48|49=client|52=20190626-13:27:42.050|56=server|10=040|8=FIX.4.2|9=56|35=0|34=49|49=client|52=20190626-13:28:12.049|56=server|10=047|8=FIX.4.2|9=56|35=0|34=50|49=client|52=20190626-13:28:42.051|56=server|10=035|8=FIX.4.2|9=68|35=A|34=51|49=client|52=20190626-13:29:10.978|56=server|98=0|108=30|10=095|8=FIX.4.2|9=68|35=A|34=52|49=client|52=20190626-13:29:40.872|56=server|98=0|108=30|10=092|8=FIX.4.2|9=56|35=0|34=53|49=client|52=20190626-13:30:10.872|56=server|10=037|8=FIX.4.2|9=68|35=A|34=54|49=client|52=20190626-13:30:24.114|56=server|98=0|108=30|10=077|8=FIX.4.2|9=56|35=0|34=55|49=client|52=20190626-13:30:54.321|56=server|10=036|8=FIX.4.2|9=56|35=0|34=56|49=client|52=20190626-13:31:25.013|56=server|10=034|8=FIX.4.2|9=56|35=0|34=57|49=client|52=20190626-13:31:55.011|56=server|10=036|8=FIX.4.2|9=56|35=0|34=58|49=client|52=20190626-13:32:25.012|56=server|10=036|8=FIX.4.2|9=56|35=0|34=59|49=client|52=20190626-13:32:55.012|56=server|10=040|8=FIX.4.2|9=68|35=A|34=60|49=client|52=20190626-13:34:48.081|56=server|98=0|108=30|10=087|8=FIX.4.2|9=97|35=D|34=61|49=client|52=20190626-13:34:48.321|56=server|11=12|40=1|54=1|60=20190626-10:34:48.204|10=198|8=FIX.4.2|9=68|35=A|34=62|49=client|52=20190626-14:08:46.899|56=server|98=0|108=30|10=106|8=FIX.4.2|9=66|35=2|34=63|49=client|52=20190626-14:08:59.128|56=server|7=62|16=0|10=232|8=FIX.4.2|9=68|35=A|34=64|49=client|52=20190626-14:09:16.683|56=server|98=0|108=30|10=097|8=FIX.4.2|9=66|35=2|34=65|49=client|52=20190626-14:09:19.518|56=server|7=62|16=0|10=234|8=FIX.4.2|9=97|35=D|34=66|49=client|52=20190626-14:09:19.519|56=server|11=12|40=1|54=1|60=20190626-11:09:19.519|10=223|8=FIX.4.2|9=56|35=0|34=67|49=client|52=20190626-14:10:08.682|56=server|10=047|8=FIX.4.2|9=56|35=0|34=68|49=client|52=20190626-14:10:38.682|56=server|10=051|8=FIX.4.2|9=56|35=0|34=69|49=client|52=20190626-14:11:08.683|56=server|10=051|8=FIX.4.2|9=68|35=A|34=70|49=client|52=20190626-14:12:03.508|56=server|98=0|108=30|10=080|8=FIX.4.2|9=121|35=5|34=71|49=client|52=20190626-14:15:48.275|56=server|58=Invalid Logon message: SendingTime accuracy problem, field=52|10=022|8=FIX.4.2|9=68|35=A|34=72|49=client|52=20190626-14:16:39.563|56=server|98=0|108=30|10=096|