8=FIX.4.3|9=67|35=A|34=1|49=client|52=20190626-13:01:50.898|56=server|98=0|108=30|10=037|8=FIX.4.3|9=55|35=0|34=2|49=client|52=20190626-13:03:43.357|56=server|10=243|8=FIX.4.3|9=64|35=0|34=3|49=client|52=20190626-13:03:43.362|56=server|112=TEST|10=002|8=FIX.4.3|9=67|35=A|34=4|49=client|52=20190626-13:03:44.564|56=server|98=0|108=30|10=035|8=FIX.4.3|9=55|35=0|34=5|49=client|52=20190626-13:04:14.757|56=server|10=249|8=FIX.4.3|9=55|35=0|34=6|49=client|52=20190626-13:04:44.757|56=server|10=253|8=FIX.4.3|9=55|35=0|34=7|49=client|52=20190626-13:05:14.753|56=server|10=248|8=FIX.4.3|9=55|35=0|34=8|49=client|52=20190626-13:05:44.752|56=server|10=251|8=FIX.4.3|9=55|35=0|34=9|49=client|52=20190626-13:06:14.755|56=server|10=253|8=FIX.4.3|9=56|35=0|34=10|49=client|52=20190626-13:06:44.756|56=server|10=042|8=FIX.4.3|9=56|35=0|34=11|49=client|52=20190626-13:07:14.755|56=server|10=040|8=FIX.4.3|9=56|35=0|34=12|49=client|52=20190626-13:07:44.756|56=server|10=045|8=FIX.4.3|9=68|35=A|34=13|49=client|52=20190626-13:09:41.111|56=server|98=0|108=30|10=075|8=FIX.4.3|9=56|35=0|34=14|49=client|52=20190626-13:10:11.797|56=server|10=040|8=FIX.4.3|9=56|35=0|34=15|49=client|52=20190626-13:10:41.814|56=server|10=034|8=FIX.4.3|9=56|35=0|34=16|49=client|52=20190626-13:11:12.047|56=server|10=032|8=FIX.4.3|9=56|35=0|34=17|49=client|52=20190626-13:11:42.046|56=server|10=035|8=FIX.4.3|9=56|35=0|34=18|49=client|52=20190626-13:12:12.047|56=server|10=035|8=FIX.4.3|9=56|35=0|34=19|49=client|52=20190626-13:12:42.048|56=server|10=040|8=FIX.4.3|9=56|35=0|34=20|49=client|52=20190626-13:13:12.049|56=server|10=031|8=FIX.4.3|9=56|35=0|34=21|49=client|52=20190626-13:13:42.049|56=server|10=035|8=FIX.4.3|9=56|35=0|34=22|49=client|52=20190626-13:14:12.048|56=server|10=033|8=FIX.4.3|9=56|35=0|34=23|49=client|52=20190626-13:14:42.048|56=server|10=037|8=FIX.4.3|9=56|35=0|34=24|49=client|52=20190626-13:15:12.050|56=server|10=029|8=FIX.4.3|9=56|35=0|34=25|49=client|52=20190626-13:15:42.051|56=server|10=034|8=FIX.4.3|9=56|35=0|34=26|49=client|52=20190626-13:16:12.049|56=server|10=040|8=FIX.4.3|9=56|35=0|34=27|49=client|52=20190626-13:16:42.048|56=server|10=043|8=FIX.4.3|9=56|35=0|34=28|49=client|52=20190626-13:17:12.049|56=server|10=043|8=FIX.4.3|9=56|35=0|34=29|49=client|52=20190626-13:17:42.050|56=server|10=039|8=FIX.4.3|9=56|35=0|34=30|49=client|52=20190626-13:18:12.049|56=server|10=037|8=FIX.4.3|9=56|35=0|34=31|49=client|52=20190626-13:18:42.049|56=server|10=041|8=FIX.4.3|9=56|35=0|34=32|49=client|52=20190626-13:19:12.049|56=server|10=040|8=FIX.4.3|9=56|35=0|34=33|49=client|52=20190626-13:19:42.048|56=server|10=043|8=FIX.4.3|9=56|35=0|34=34|49=client|52=20190626-13:20:12.048|56=server|10=033|8=FIX.4.3|9=56|35=0|34=35|49=client|52=20190626-13:20:42.050|56=server|10=030|8=FIX.4.3|9=56|35=0|34=36|49=client|52=20190626-13:21:12.049|56=server|10=037|8=FIX.4.3|9=56|35=0|34=37|49=client|52=20190626-13:21:42.049|56=server|10=041|8=FIX.4.3|9=56|35=0|34=38|49=client|52=20190626-13:22:12.050|56=server|10=032|8=FIX.4.3|9=56|35=0|34=39|49=client|52=20190626-13:22:42.050|56=server|10=036|8=FIX.4.3|9=56|35=0|34=40|49=client|52=20190626-13:23:12.049|56=server|10=034|8=FIX.4.3|9=56|35=0|34=41|49=client|52=20190626-13:23:42.049|56=server|10=038|8=FIX.4.3|9=56|35=0|34=42|49=client|52=20190626-13:24:12.048|56=server|10=036|8=FIX.4.3|9=56|35=0|34=43|49=client|52=20190626-13:24:42.049|56=server|10=041|8=FIX.4.3|9=56|35=0|34=44|49=client|52=20190626-13:25:12.049|56=server|10=040|8=FIX.4.3|9=56|35=0|34=45|49=client|52=20190626-13:25:42.050|56=server|10=036|8=FIX.4.3|9=56|35=0|34=46|49=client|52=20190626-13:26:12.049|56=server|10=043|8=FIX.4.3|9=56|35=0|34=47|49=client|52=20190626-13:26:42.049|56=server|10=047|8=FIX.4.3|9=56|35=0|34=48|49=client|52=20190626-13:27:12.050|56=server|10=038|8=FIX.4.3|9=56|35=0|34=49|49=client|52=20190626-13:27:42.049|56=server|10=050|8=FIX.4.3|9=56|35=0|34=50|49=client|52=20190626-13:28:12.049|56=server|10=040|8=FIX.4.3|9=56|35=0|34=51|49=client|52=20190626-13:28:42.050|56=server|10=036|8=FIX.4.3|9=68|35=A|34=52|49=client|52=20190626-13:29:10.904|56=server|98=0|108=30|10=086|8=FIX.4.3|9=68|35=A|34=53|49=client|52=20190626-13:29:40.869|56=server|98=0|108=30|10=100|8=FIX.4.3|9=56|35=0|34=54|49=client|52=20190626-13:30:10.869|56=server|10=045|8=FIX.4.3|9=68|35=A|34=55|49=client|52=20190626-13:30:24.044|56=server|98=0|108=30|10=081|8=FIX.4.3|9=56|35=0|34=56|49=client|52=20190626-13:30:54.314|56=server|10=040|8=FIX.4.3|9=56|35=0|34=57|49=client|52=20190626-13:31:24.307|56=server|10=041|8=FIX.4.3|9=56|35=0|34=58|49=client|52=20190626-13:31:54.312|56=server|10=041|8=FIX.4.3|9=56|35=0|34=59|49=client|52=20190626-13:32:24.312|56=server|10=040|8=FIX.4.3|9=56|35=0|34=60|49=client|52=20190626-13:32:54.311|56=server|10=034|8=FIX.4.3|9=68|35=A|34=61|49=client|52=20190626-13:34:48.002|56=server|98=0|108=30|10=082|8=FIX.4.3|9=68|35=A|34=62|49=client|52=20190626-14:08:46.782|56=server|98=0|108=30|10=098|8=FIX.4.3|9=66|35=2|34=63|49=client|52=20190626-14:08:47.006|56=server|7=62|16=0|10=225|8=FIX.4.3|9=97|35=D|34=64|49=client|52=20190626-14:08:47.078|56=server|11=12|40=1|54=1|60=20190626-11:08:47.007|10=214|8=FIX.4.3|9=56|35=0|34=65|49=client|52=20190626-14:09:17.681|56=server|10=053|8=FIX.4.3|9=56|35=0|34=66|49=client|52=20190626-14:09:47.681|56=server|10=057|8=FIX.4.3|9=56|35=0|34=67|49=client|52=20190626-14:10:17.681|56=server|10=047|8=FIX.4.3|9=56|35=0|34=68|49=client|52=20190626-14:10:47.682|56=server|10=052|8=FIX.4.3|9=56|35=0|34=69|49=client|52=20190626-14:11:17.681|56=server|10=050|8=FIX.4.3|9=68|35=A|34=70|49=client|52=20190626-14:11:59.682|56=server|98=0|108=30|10=094|8=FIX.4.3|9=97|35=D|34=71|49=client|52=20190626-14:11:59.822|56=server|11=12|40=1|54=1|60=20190626-11:11:59.822|10=208|8=FIX.4.3|9=68|35=A|34=72|49=client|52=20190626-14:16:39.488|56=server|98=0|108=30|10=103|8=FIX.4.3|9=66|35=2|34=73|49=client|52=20190626-14:16:39.705|56=server|7=70|16=0|10=231|